:100000000C9434000C9451000C9451000C94510049
:100010000C9451000C9451000C9451000C9451001C
:100020000C9451000C9451000C9451000C9451000C
:100030000C9451000C9451000C9451000C945100FC
:100040000C9451000C9451000C9451000C945100EC
:100050000C9451000C9451000C9451000C945100DC
:100060000C9451000C94510011241FBECFEFD8E026
:10007000DEBFCDBF12E0A0E0B1E0ECEEF7E302C0DE
:1000800005900D92AA32B107D9F712E0AAE2B2E0C8
:1000900001C01D92AB32B107E1F70E94EC120C9443
:1000A000F41B0C940000EF92FF920F931F937B01BF
:1000B0008C0120E030E040E05FE40E94FF038823F1
:1000C0008CF0C801B70120E030E040E05FE40E941E
:1000D000CB010E945F049B01AC01205030404040A6
:1000E000504806C0C801B7010E945F049B01AC01E3
:1000F000B901CA011F910F91FF90EF900895A0E000
:10010000B0E0E5E8F0E00C94781BDC012B01FA018B
:100110009C91923008F439C1EB018881823008F457
:1001200033C1943069F4843009F02FC111969C9149
:1001300011978981981709F428C1A8E1B1E025C178
:10014000843009F421C18230A9F4923009F01DC134
:100150009A01AD0188E0EA010990AE01E901099236
:100160009E018150C1F7E201898111969C918923FA
:10017000818308C1923009F407C112962D903C90FA
:100180001397EB018A819B811496AD90BD90CD9021
:10019000DC901797EC80FD800E811F819101281B58
:1001A000390BB90137FF04C066277727621B730B31
:1001B000603271050CF061C0121613066CF5370140
:1001C0004801062E04C096948794779467940A9405
:1001D000D2F721E030E040E050E004C0220F331FAE
:1001E000441F551F6A95D2F721503040404050407F
:1001F0002E213F2140235123211531054105510571
:1002000021F021E030E040E050E079018A01E62869
:10021000F728082919293CC0232BD1F1260E371EB7
:1002200035014601062E04C096948794779467940E
:100230000A94D2F721E030E040E050E004C0220F01
:10024000331F441F551F6A95D2F72150304040405C
:1002500050402A213B214C215D21211531054105CA
:10026000510521F021E030E040E050E059016A0101
:10027000A628B728C828D9280BC0821593052CF0CA
:100280001C01AA24BB24650103C0EE24FF248701BE
:1002900011969C91D20111968C91981709F445C042
:1002A000992339F0A80197012A193B094C095D09E6
:1002B00006C0A60195012E193F09400B510B57FDB1
:1002C00008C0118233822282248335834683578378
:1002D0001DC081E081833382228288279927DC0137
:1002E000821B930BA40BB50B84839583A683B783E2
:1002F0000DC0220F331F441F551F248335834683AF
:1003000057838281938101979383828324813581EE
:1003100046815781DA01C9010197A109B1098F5FAF
:100320009F4FAF4FBF4328F30BC09183338222828C
:10033000EA0CFB1C0C1D1D1DE482F582068317834D
:1003400083E08083248135814681578157FF1AC01D
:10035000C901AA2797FDA095BA2F81709070A0704F
:10036000B0705695479537952795822B932BA42BE4
:10037000B52B84839583A683B7838281938101966D
:1003800093838283DF0101C0D201CD01CDB7DEB7F7
:10039000E2E10C94941BA0E2B0E0E1EDF1E00C94FA
:1003A000841B69837A838B839C832D833E834F8355
:1003B0005887E9E0EE2EF12CEC0EFD1ECE010196E1
:1003C000B7010E9450068E010F5E1F4FCE010596A9
:1003D000B8010E9450068A8991E089278A8BC7015B
:1003E000B801AE01475E5F4F0E947F000E947B050F
:1003F000A096E6E00C94A01BA0E2B0E0E2E0F2E000
:100400000C94841B69837A838B839C832D833E8326
:100410004F835887F9E0EF2EF12CEC0EFD1ECE0134
:100420000196B7010E9450068E010F5E1F4FCE014C
:100430000596B8010E945006C701B801AE01475E9B
:100440005F4F0E947F000E947B05A096E6E00C941F
:10045000A01BA0E2B0E0EFE2F2E00C94781B69830D
:100460007A838B839C832D833E834F835887CE0171
:100470000196BE01675F7F4F0E945006CE01059630
:10048000BE016F5E7F4F0E9450069985923088F0C2
:1004900089898230C8F0943019F4823051F404C054
:1004A000843029F4923081F488E191E0C6C0923022
:1004B00049F420E09A858A89981321E02A87CE01A1
:1004C0000996BBC0823049F420E09A858A89981346
:1004D00021E02A8BCE014196B0C02D843E844F840A
:1004E00058886D887E888F88988CEE24FF24870139
:1004F000AA24BB24650140E050E060E070E0E0E049
:10050000F0E0C10181709070892BE9F0E60CF71CD6
:10051000081D191D9A01AB012A0D3B1D4C1D5D1DC7
:1005200080E090E0A0E0B0E0E614F70408051905CB
:1005300020F481E090E0A0E0B0E0BA01A901480F0A
:10054000591F6A1F7B1FAA0CBB1CCC1CDD1C97FE0D
:1005500008C081E090E0A0E0B0E0A82AB92ACA2A49
:10056000DB2A3196E032F10549F0660C771C881CD5
:10057000991C5694479437942794C3CFFA85EA89F7
:100580002B893C898B859C85280F391F2E5F3F4F17
:1005900017C0CA0181709070892B61F0169507957C
:1005A000F794E79480E090E0A0E0B0E8E82AF92A28
:1005B0000A2B1B2B76956795579547952F5F3F4FD5
:1005C00077FDE7CF0CC0440F551F661F771F17FD3F
:1005D0004160EE0CFF1C001F111F215030404030C5
:1005E00090E0590790E0690790E4790760F32B8F5A
:1005F0003C8FDB01CA018F779070A070B07080349F
:100600009105A105B10561F447FD0AC0E114F104AB
:100610000105110529F0405C5F4F6F4F7F4F407817
:100620001A8EFE1711F081E08A8F4D8F5E8F6F8FCB
:1006300078A383E0898FCE0149960E947B05A0961E
:10064000E2E10C94941BA8E1B0E0E9E2F3E00C9441
:10065000801B69837A838B839C832D833E834F83A6
:100660005887B9E0EB2EF12CEC0EFD1ECE01019661
:10067000B7010E9450068E010F5E1F4FCE010596F6
:10068000B8010E9450062985223008F47EC03989BD
:10069000323010F4B8017CC08A859A8989278A870C
:1006A000243011F0223031F4231709F06EC068E1D4
:1006B00071E06EC0343039F41D861E861F86188A9C
:1006C0001C861B8604C0323021F484E08987B70180
:1006D0005FC02B853C858B899C89281B390B3C8707
:1006E0002B87ED84FE840F851889AD88BE88CF885E
:1006F000D88CEA14FB040C051D0540F4EE0CFF1C1D
:10070000001F111F215030403C872B8720E030E034
:1007100040E050E080E090E0A0E0B0E460E070E015
:10072000EA14FB040C051D0540F0282B392B4A2B3D
:100730005B2BEA18FB080C091D09B695A795979540
:100740008795EE0CFF1C001F111F6F5F7F4F6F31ED
:10075000710531F7DA01C9018F779070A070B07020
:1007600080349105A105B10561F427FD0AC0E114AB
:10077000F1040105110529F0205C3F4F4F4F5F4FF9
:1007800020782D873E874F87588BBE01675F7F4F4C
:10079000CB010E947B056896EAE00C949C1BA8E1C3
:1007A000B0E0E5EDF3E00C94841B69837A838B83DE
:1007B0009C832D833E834F83588789E0E82EF12C5C
:1007C000EC0EFD1ECE010196B7010E9450068E016F
:1007D0000F5E1F4FCE010596B8010E945006898515
:1007E000823040F08989823028F0C701B8010E9428
:1007F000C80601C08FEF6896E6E00C94A01BA8E144
:10080000B0E0E5E0F4E00C94841B69837A838B8389
:100810009C832D833E834F83588789E0E82EF12CFB
:10082000EC0EFD1ECE010196B7010E9450068E010E
:100830000F5E1F4FCE010596B8010E9450068985B4
:10084000823040F08989823028F0C701B8010E94C7
:10085000C80601C08FEF6896E6E00C94A01BA8E1E3
:10086000B0E0E5E3F4E00C94841B69837A838B8326
:100870009C832D833E834F83588789E0E82EF12C9B
:10088000EC0EFD1ECE010196B7010E9450068E01AE
:100890000F5E1F4FCE010596B8010E945006898554
:1008A000823040F08989823028F0C701B8010E9467
:1008B000C80601C081E06896E6E00C94A01BACE09D
:1008C000B0E0E5E6F4E00C94881B69837A838B83BF
:1008D0009C83CE010196BE016B5F7F4F0E94500644
:1008E0008D81823061F1823050F1843021F48E812B
:1008F000882351F12EC02F81388537FD20C06E81AD
:100900002F3131051CF06623F9F023C08EE190E011
:10091000821B930B29853A854B855C8504C05695CF
:100920004795379527958A95D2F76623B1F050956C
:100930004095309521953F4F4F4F5F4F0EC020E0BF
:1009400030E040E050E009C02FEF3FEF4FEF5FE7AE
:1009500004C020E030E040E050E8B901CA012C9624
:10096000E2E00C94A41BA8E0B0E0E9EBF4E00C9406
:10097000801B7B018C01611571058105910519F4BE
:1009800082E0898360C083E089838EE1C82ED12C08
:10099000DC82CB82ED82FE820F831887C801B7010B
:1009A0000E942C05FC013197F7FF3BC0222733271B
:1009B0002E1B3F0B57016801022E04C0D694C7942A
:1009C000B794A7940A94D2F740E050E060E070E05A
:1009D00081E090E0A0E0B0E004C0880F991FAA1F5A
:1009E000BB1F2A95D2F70197A109B1098E219F213A
:1009F000A023B1230097A105B10521F041E050E00B
:100A000060E070E04A295B296C297D294D835E8373
:100A10006F8378878EE190E08E1B9F0B9C838B8386
:100A200012C0309781F00E2E04C0EE0CFF1C001F88
:100A3000111F0A94D2F7ED82FE820F831887CE1A17
:100A4000DF0ADC82CB821A82CE0101960E947B05EE
:100A50002896EAE00C949C1BEF92FF920F931F9351
:100A60007B018C0180E0E81680E0F80681E0080751
:100A700080E0180788F48FEFE816F10401051105EE
:100A800031F028F088E090E0A0E0B0E017C080E00E
:100A900090E0A0E0B0E012C080E0E81680E0F80648
:100AA00080E0080781E0180728F088E190E0A0E0E6
:100AB000B0E004C080E190E0A0E0B0E020E230E0EF
:100AC00040E050E0281B390B4A0B5B0B04C0169525
:100AD0000795F794E7948A95D2F7F701E05EFE4F09
:100AE0008081281B310941095109C9011F910F91CA
:100AF000FF90EF900895DF92EF92FF920F931F9374
:100B0000FC01E480F58006811781D18080818230EC
:100B100048F480E090E0A0E1B0E0E82AF92A0A2B4E
:100B20001B2BA5C0843009F49FC0823021F4EE2431
:100B3000FF24870105C0E114F1040105110519F432
:100B4000E0E0F0E096C0628173819FEF6238790740
:100B50000CF05BC022E83FEF261B370B2A31310532
:100B60002CF020E030E040E050E02AC0B801A701BE
:100B7000022E04C076956795579547950A94D2F74B
:100B800081E090E0A0E0B0E004C0880F991FAA1FA8
:100B9000BB1F2A95D2F70197A109B1098E219F2188
:100BA000A023B1230097A105B10521F081E090E0D9
:100BB000A0E0B0E09A01AB01282B392B4A2B5B2B2C
:100BC000DA01C9018F779070A070B0708034910500
:100BD000A105B10539F427FF09C0205C3F4F4F4FF5
:100BE0005F4F04C0215C3F4F4F4F5F4FE0E0F0E0AC
:100BF0002030A0E03A07A0E04A07A0E45A0710F02E
:100C0000E1E0F0E079018A0127C06038710564F500
:100C1000FB01E158FF4FD801C7018F779070A0709A
:100C2000B07080349105A105B10539F4E7FE0DC01F
:100C300080E490E0A0E0B0E004C08FE390E0A0E0AA
:100C4000B0E0E80EF91E0A1F1B1F17FF05C016951E
:100C50000795F794E794319687E016950795F794F2
:100C6000E7948A95D1F705C0EE24FF248701EFEFC2
:100C7000F0E06E2F679566276795902F9F77D79442
:100C8000DD24D7948E2F8695492F462B582F5D292A
:100C9000B701CA011F910F91FF90EF90DF90089567
:100CA000FC01DB01408151812281622F6F7770E06E
:100CB000221F2227221F9381892F880F822B282F02
:100CC00030E0991F9927991F11969C931197211530
:100CD0003105A9F5411551056105710511F482E051
:100CE00037C082E89FEF13969C938E9312979A01D8
:100CF000AB0167E0220F331F441F551F6A95D1F7E0
:100D000083E08C930DC0220F331F441F551F129692
:100D10008D919C911397019713969C938E931297A4
:100D2000203080E0380780E0480780E4580758F317
:100D300014962D933D934D935C93179708952F3FF1
:100D4000310579F4411551056105710519F484E007
:100D50008C93089564FF03C081E08C9312C01C92B1
:100D600010C02F57304013963C932E93129783E078
:100D70008C9387E0440F551F661F771F8A95D1F724
:100D8000706414964D935D936D937C9317970895BB
:100D90001F93DC01FB019C91923008F447C08081D5
:100DA000823008F443C0943051F411961C91843081
:100DB00099F58181682F70E0611B71093FC0843013
:100DC00021F0923031F48230B9F18181882389F1A8
:100DD0002DC011961C9111978230F1F08181181766
:100DE000D9F412962D913C911397828193818217A9
:100DF000930794F028173907BCF014968D919D91B4
:100E00000D90BC91A02D24813581468157812817F2
:100E100039074A075B0718F4112341F00AC082170B
:100E20009307A407B50740F4112319F061E070E0BF
:100E300005C06FEF7FEF02C060E070E0CB011F9153
:100E40000895DF93CF9300D0CDB7DEB79A8389831F
:100E5000A4E2B0E0E4E2F0E0808180638C93ECE710
:100E6000F0E01082ACE7B0E0ECE7F0E08081282F02
:100E7000E981FA818081882F90E0002496958795FA
:100E80000794969587950794982F802D822B8C93A5
:100E9000EAE7F0E080E88083AAE7B0E0EAE7F0E084
:100EA0009081E981FA818181892B8C930F900F9039
:100EB000CF91DF910895DF93CF930F92CDB7DEB737
:100EC0008983898187708983ACE7B0E0ECE7F0E043
:100ED0008081807E8C93ACE7B0E0ECE7F0E090811D
:100EE0008981892B8C93AAE7B0E0EAE7F0E0808162
:100EF00080648C93EAE7F0E08081882F90E0807135
:100F000090700097B9F3AAE7B0E0EAE7F0E08081DB
:100F100080618C93E8E7F0E0808191810F90CF9120
:100F2000DF910895DF93CF93CDB7DEB7AAE2B0E0AB
:100F3000EAE2F0E08081886F8C93A4E2B0E0E4E222
:100F4000F0E0808182608C93CF91DF910895DF93F0
:100F5000CF9300D00F92CDB7DEB789838981282F38
:100F600030E03B832A838A819B818230910509F49A
:100F700075C02A813B812330310554F48A819B81DD
:100F8000009799F02A813B8121303105C9F1E2C0F7
:100F90008A819B818330910509F487C02A813B8136
:100FA0002430310509F4A8C0D5C0ABE2B0E0EBE2D3
:100FB000F0E08081877F8C93A5E2B0E0E5E2F0E08D
:100FC00080818D7F8C93ABE2B0E0EBE2F0E080813A
:100FD0008F7D8C93ABE2B0E0EBE2F0E080818F7B21
:100FE0008C93ABE2B0E0EBE2F0E080818F7E8C93FB
:100FF000ABE2B0E0EBE2F0E080818F778C93D4C07D
:10100000ABE2B0E0EBE2F0E0808188608C93A5E297
:10101000B0E0E5E2F0E0808182608C93ABE2B0E08A
:10102000EBE2F0E0808180628C93ABE2B0E0EBE237
:10103000F0E080818F7E8C93ABE2B0E0EBE2F0E0F9
:10104000808180688C93ABE2B0E0EBE2F0E08081DD
:101050008F7B8C9386E40E94111BA6C0ABE2B0E0AC
:10106000EBE2F0E0808188608C93A5E2B0E0E5E2FD
:10107000F0E0808182608C93ABE2B0E0EBE2F0E0E4
:10108000808180658C93ABE2B0E0EBE2F0E08081A0
:101090008F7D8C93ABE2B0E0EBE2F0E080818F7764
:1010A0008C9382E40E94111B7FC0ABE2B0E0EBE2C4
:1010B000F0E0808188608C93A5E2B0E0E5E2F0E0AA
:1010C000808182608C93ABE2B0E0EBE2F0E0808163
:1010D00080668C93ABE2B0E0EBE2F0E080818F7E43
:1010E0008C93ABE2B0E0EBE2F0E080818F778C9301
:1010F0008CE40E94111B58C0ABE2B0E0EBE2F0E0E0
:10110000808188608C93A5E2B0E0E5E2F0E0808128
:1011100082608C93ABE2B0E0EBE2F0E080818F7D07
:101120008C93ABE2B0E0EBE2F0E080818F7B8C93BC
:10113000ABE2B0E0EBE2F0E0808180618C93ABE267
:10114000B0E0EBE2F0E0808180688C9382E50E9461
:10115000111B2AC0ABE2B0E0EBE2F0E08081877FB8
:101160008C93A5E2B0E0E5E2F0E080818D7F8C9386
:10117000ABE2B0E0EBE2F0E080818F7D8C93ABE2FC
:10118000B0E0EBE2F0E080818F7B8C93ABE2B0E0EB
:10119000EBE2F0E080818F7E8C93ABE2B0E0EBE29B
:1011A000F0E080818F778C930F900F900F90CF910C
:1011B000DF910895DF93CF9300D0CDB7DEB7898359
:1011C0000E94091A0E94611A883011F01A8216C012
:1011D0008EE40E94241A0E94611A883111F01A824A
:1011E0000DC089810E94241A0E94611A883211F070
:1011F0001A8204C00E94191A81E08A838A810F90A2
:101200000F90CF91DF910895DF93CF93CDB7DEB7E5
:101210002E970FB6F894DEBF0FBECDBFA7E2B0E0A9
:10122000E7E2F0E0808180638C9380E090E0A0EAC8
:10123000B1E48B879C87AD87BE876B857C858D8568
:101240009E8520E030E04AE755E40E942902DC0157
:10125000CB018F839887A987BA876F817885898525
:101260009A8520E030E040E85FE30E942F04882365
:101270002CF481E090E09E838D833FC06F81788560
:1012800089859A8520E03FEF4FE757E40E94CF031E
:1012900018164CF56B857C858D859E8520E030E0A9
:1012A00040E251E40E942902DC01CB01BC01CD01E6
:1012B0000E945300DC01CB019E838D830FC080E927
:1012C00091E09C838B838B819C810197F1F79C83B8
:1012D0008B838D819E8101979E838D838D819E81DD
:1012E000009769F714C06F81788589859A850E9477
:1012F0005300DC01CB019E838D838D819E819A8377
:10130000898389819A810197F1F79A83898382E0A1
:101310000E949C0988E20E949C098FE00E949C091F
:1013200081E00E949C092E960FB6F894DEBF0FBE96
:10133000CDBFCF91DF9108950F931F93DF93CF938C
:10134000CDB7DEB7C356D0400FB6F894DEBF0FBEA0
:10135000CDBFFE01ED59FF4F808380912A028E7F21
:1013600080932A0280912A020E94DA0880912A0240
:101370008D7F80932A0280912A020E94DA08FE0162
:10138000E15AFF4F80E090E0A0E8BFE380839183C3
:10139000A283B3838E01055A1F4FFE01E15AFF4F0E
:1013A000608171818281938120E030E04AE755E4D9
:1013B0000E942902DC01CB01F80180839183A28382
:1013C000B383FE01E55AFF4F608171818281938171
:1013D00020E030E040E85FE30E942F04882344F4DB
:1013E000FE01E75AFF4F81E090E09183808364C063
:1013F000FE01E55AFF4F608171818281938120E077
:101400003FEF4FE757E40E94CF0318160CF043C09C
:10141000FE01E15AFF4F608171818281938120E05A
:1014200030E040E251E40E942902DC01CB018E0150
:10143000075A1F4FBC01CD010E945300DC01CB01B4
:10144000F801918380831FC0FE01E95AFF4F80E9B4
:1014500091E091838083FE01E95AFF4F8081918161
:101460000197F1F7FE01E95AFF4F91838083DE0176
:10147000A75ABF4FFE01E75AFF4F80819181019724
:1014800011969C938E93FE01E75AFF4F80819181C4
:101490000097D1F627C08E01075A1F4FFE01E55A6B
:1014A000FF4F60817181828193810E945300DC0132
:1014B000CB01F80191838083DE01AB5ABF4FFE015F
:1014C000E75AFF4F808191818D939C93FE01EB5AE7
:1014D000FF4F808191810197F1F7FE01EB5AFF4F99
:1014E0009183808380912A02846080932A02809174
:1014F0002A020E94DA08FE01EF5AFF4F80E090E0D6
:10150000A0E8BFE380839183A283B3838E01035B52
:101510001F4FFE01EF5AFF4F6081718182819381DD
:1015200020E030E04AE755E40E942902DC01CB01CB
:10153000F80180839183A283B383FE01E35BFF4FB5
:10154000608171818281938120E030E040E85FE337
:101550000E942F04882344F4FE01E55BFF4F81E0E5
:1015600090E09183808364C0FE01E35BFF4F608164
:1015700071818281938120E03FEF4FE757E40E9421
:10158000CF0318160CF043C0FE01EF5AFF4F6081E5
:1015900071818281938120E030E040E251E40E9439
:1015A0002902DC01CB018E01055B1F4FBC01CD017F
:1015B0000E945300DC01CB01F801918380831FC09E
:1015C000FE01E75BFF4F80E991E091838083FE019C
:1015D000E75BFF4F808191810197F1F7FE01E75BA7
:1015E000FF4F91838083DE01A55BBF4FFE01E55B6A
:1015F000FF4F80819181019711969C938E93FE01FC
:10160000E55BFF4F808191810097D1F627C08E0165
:10161000055B1F4FFE01E35BFF4F6081718182819B
:1016200093810E945300DC01CB01F80191838083F8
:10163000DE01A95BBF4FFE01E55BFF4F8081918119
:101640008D939C93FE01E95BFF4F8081918101970F
:10165000F1F7FE01E95BFF4F9183808380912A02BD
:10166000982F9F70FE01ED59FF4F8081807F892B5D
:1016700080932A0280912A020E94DA08FE01ED5B23
:10168000FF4F80E090E0A0E8BFE380839183A283D6
:10169000B3838E01015C1F4FFE01ED5BFF4F608144
:1016A00071818281938120E030E04AE755E40E9415
:1016B0002902DC01CB01F80180839183A283B383EB
:1016C000FE01FF96608171818281938120E030E08C
:1016D00040E85FE30E942F0488232CF481E090E02F
:1016E0009EAF8DAF46C0FE01FF9660817181828101
:1016F000938120E03FEF4FE757E40E94CF03181695
:1017000064F5FE01ED5BFF4F608171818281938101
:1017100020E030E040E251E40E942902DC01CB01EC
:10172000BC01CD010E945300DC01CB019EAF8DAF07
:101730000FC080E991E09CAF8BAF8BAD9CAD019762
:10174000F1F79CAF8BAF8DAD9EAD01979EAF8DAF86
:101750008DAD9EAD009769F716C0FE01FF966081C2
:101760007181828193810E945300DC01CB019EAF85
:101770008DAF8DAD9EAD9AAF89AF89AD9AAD019712
:10178000F1F79AAF89AF80912A028B7F80932A026A
:1017900080912A020E94DA0880E090E0A0E8BFE38E
:1017A0008DAB9EABAFABB8AF6DA97EA98FA998AD3D
:1017B00020E030E04AE755E40E942902DC01CB0139
:1017C00089AB9AABABABBCAB69A97AA98BA99CA935
:1017D00020E030E040E85FE30E942F0488232CF4EF
:1017E00081E090E098AB8FA73FC069A97AA98BA947
:1017F0009CA920E03FEF4FE757E40E94CF03181663
:101800004CF56DA97EA98FA998AD20E030E040E2AB
:1018100051E40E942902DC01CB01BC01CD010E94F0
:101820005300DC01CB0198AB8FA70FC080E991E09A
:101830009EA78DA78DA59EA50197F1F79EA78DA7C1
:101840008FA598A9019798AB8FA78FA598A9009706
:1018500069F714C069A97AA98BA99CA90E945300B1
:10186000DC01CB0198AB8FA78FA598A99CA78BA76C
:101870008BA59CA50197F1F79CA78BA780912A02C5
:10188000846080932A0280912A020E94DA0880E014
:1018900090E0A0E8BFE38FA398A7A9A7BAA76FA17C
:1018A00078A589A59AA520E030E04AE755E40E9492
:1018B0002902DC01CB018BA39CA3ADA3BEA36BA12A
:1018C0007CA18DA19EA120E030E040E85FE30E9472
:1018D0002F0488232CF481E090E09AA389A33FC0D1
:1018E0006BA17CA18DA19EA120E03FEF4FE757E4C3
:1018F0000E94CF0318164CF56FA178A589A59AA56B
:1019000020E030E040E251E40E942902DC01CB01FA
:10191000BC01CD010E945300DC01CB019AA389A335
:101920000FC080E991E098A38F8F8F8D98A10197C8
:10193000F1F798A38F8F89A19AA101979AA389A300
:1019400089A19AA1009769F714C06BA17CA18DA110
:101950009EA10E945300DC01CB019AA389A389A117
:101960009AA19E8F8D8F8D8D9E8D0197F1F79E8F01
:101970008D8F80912A02282F2F70FE01ED59FF4F85
:101980008081882F90E082959295907F9827807F24
:101990009827822B80932A0280912A020E94DA08DB
:1019A00080E090E0A0E8BFE3898F9A8FAB8FBC8F77
:1019B000698D7A8D8B8D9C8D20E030E04AE755E46F
:1019C0000E942902DC01CB018D8B9E8BAF8BB88FDF
:1019D0006D897E898F89988D20E030E040E85FE353
:1019E0000E942F0488232CF481E090E09C8B8B8B49
:1019F0003FC06D897E898F89988D20E03FEF4FE74A
:101A000057E40E94CF0318164CF5698D7A8D8B8DA3
:101A10009C8D20E030E040E251E40E942902DC018C
:101A2000CB01BC01CD010E945300DC01CB019C8B9A
:101A30008B8B0FC080E991E09A8B898B89899A8979
:101A40000197F1F79A8B898B8B899C8901979C8BE5
:101A50008B8B8B899C89009769F714C06D897E896F
:101A60008F89988D0E945300DC01CB019C8B8B8B5E
:101A70008B899C89988B8F878F8598890197F1F73F
:101A8000988B8F8780912A028B7F80932A02809186
:101A90002A020E94DA0880E090E0A0E8BFE38B878A
:101AA0009C87AD87BE876B857C858D859E8520E074
:101AB00030E04AE755E40E942902DC01CB018F8324
:101AC0009887A987BA876F81788589859A8520E06C
:101AD00030E040E85FE30E942F0488232CF481E08B
:101AE00090E09E838D833FC06F81788589859A853C
:101AF00020E03FEF4FE757E40E94CF0318164CF564
:101B00006B857C858D859E8520E030E040E251E448
:101B10000E942902DC01CB01BC01CD010E945300CF
:101B2000DC01CB019E838D830FC080E991E09C8313
:101B30008B838B819C810197F1F79C838B838D81B3
:101B40009E8101979E838D838D819E81009769F789
:101B500014C06F81788589859A850E945300DC01C5
:101B6000CB019E838D838D819E819A838983898118
:101B70009A810197F1F79A838983CD59DF4F0FB688
:101B8000F894DEBF0FBECDBFCF91DF911F910F91B3
:101B900008950F931F93DF93CF93CDB7DEB7C3564E
:101BA000D0400FB6F894DEBF0FBECDBFFE01ED5999
:101BB000FF4F808380912A02816080932A02809166
:101BC0002A020E94DA0880912A028D7F80932A02DD
:101BD00080912A020E94DA08FE01E15AFF4F80E05C
:101BE00090E0A0E8BFE380839183A283B3838E015A
:101BF000055A1F4FFE01E15AFF4F608171818281BA
:101C0000938120E030E04AE755E40E942902DC019C
:101C1000CB01F80180839183A283B383FE01E55A4F
:101C2000FF4F608171818281938120E030E040E844
:101C30005FE30E942F04882344F4FE01E75AFF4F1C
:101C400081E090E09183808364C0FE01E55AFF4FFC
:101C5000608171818281938120E03FEF4FE757E4FB
:101C60000E94CF0318160CF043C0FE01E15AFF4F4B
:101C7000608171818281938120E030E040E251E413
:101C80000E942902DC01CB018E01075A1F4FBC01C3
:101C9000CD010E945300DC01CB01F80191838083C8
:101CA0001FC0FE01E95AFF4F80E991E091838083D4
:101CB000FE01E95AFF4F808191810197F1F7FE0102
:101CC000E95AFF4F91838083DE01A75ABF4FFE017F
:101CD000E75AFF4F80819181019711969C938E93D3
:101CE000FE01E75AFF4F808191810097D1F627C00E
:101CF0008E01075A1F4FFE01E55AFF4F6081718127
:101D0000828193810E945300DC01CB01F801918311
:101D10008083DE01AB5ABF4FFE01E75AFF4F80813F
:101D200091818D939C93FE01EB5AFF4F80819181AD
:101D30000197F1F7FE01EB5AFF4F91838083809169
:101D40002A02846080932A0280912A020E94DA0883
:101D5000FE01EF5AFF4F80E090E0A0E8BFE38083F0
:101D60009183A283B3838E01035B1F4FFE01EF5A61
:101D7000FF4F608171818281938120E030E04AE7EA
:101D800055E40E942902DC01CB01F8018083918394
:101D9000A283B383FE01E35BFF4F60817181828187
:101DA000938120E030E040E85FE30E942F04882325
:101DB00044F4FE01E55BFF4F81E090E09183808376
:101DC00064C0FE01E35BFF4F60817181828193817A
:101DD00020E03FEF4FE757E40E94CF0318160CF0C6
:101DE00043C0FE01EF5AFF4F608171818281938170
:101DF00020E030E040E251E40E942902DC01CB0106
:101E00008E01055B1F4FBC01CD010E945300DC0118
:101E1000CB01F801918380831FC0FE01E75BFF4F78
:101E200080E991E091838083FE01E75BFF4F808131
:101E300091810197F1F7FE01E75BFF4F918380836A
:101E4000DE01A55BBF4FFE01E55BFF4F8081918105
:101E5000019711969C938E93FE01E55BFF4F808165
:101E600091810097D1F627C08E01055B1F4FFE01BF
:101E7000E35BFF4F60817181828193810E945300F7
:101E8000DC01CB01F80191838083DE01A95BBF4FA8
:101E9000FE01E55BFF4F808191818D939C93FE0154
:101EA000E95BFF4F808191810197F1F7FE01E95BCA
:101EB000FF4F9183808380912A02982F9F70FE01AB
:101EC000ED59FF4F8081807F892B80932A0280917A
:101ED0002A020E94DA08FE01ED5BFF4F80E090E0ED
:101EE000A0E8BFE380839183A283B3838E01015C6A
:101EF0001F4FFE01ED5BFF4F6081718182819381F5
:101F000020E030E04AE755E40E942902DC01CB01E1
:101F1000F80180839183A283B383FE01FF966081E1
:101F200071818281938120E030E040E85FE30E948C
:101F30002F0488232CF481E090E09EAF8DAF46C043
:101F4000FE01FF96608171818281938120E03FEFE5
:101F50004FE757E40E94CF03181664F5FE01ED5BCE
:101F6000FF4F608171818281938120E030E040E207
:101F700051E40E942902DC01CB01BC01CD010E9489
:101F80005300DC01CB019EAF8DAF0FC080E991E023
:101F90009CAF8BAF8BAD9CAD0197F1F79CAF8BAF36
:101FA0008DAD9EAD01979EAF8DAF8DAD9EAD00976F
:101FB00069F716C0FE01FF9660817181828193816D
:101FC0000E945300DC01CB019EAF8DAF8DAD9EAD65
:101FD0009AAF89AF89AD9AAD0197F1F79AAF89AF02
:101FE00080912A028B7F80932A0280912A020E948C
:101FF000DA0880E090E0A0E8BFE38DAB9EABAFAB2A
:10200000B8AF6DA97EA98FA998AD20E030E04AE76E
:1020100055E40E942902DC01CB0189AB9AABABAB42
:10202000BCAB69A97AA98BA99CA920E030E040E863
:102030005FE30E942F0488232CF481E090E098ABAA
:102040008FA73FC069A97AA98BA99CA920E03FEF7F
:102050004FE757E40E94CF0318164CF56DA97EA9EF
:102060008FA998AD20E030E040E251E40E942902BF
:10207000DC01CB01BC01CD010E945300DC01CB018E
:1020800098AB8FA70FC080E991E09EA78DA78DA583
:102090009EA50197F1F79EA78DA78FA598A90197F7
:1020A00098AB8FA78FA598A9009769F714C069A965
:1020B0007AA98BA99CA90E945300DC01CB0198ABA3
:1020C0008FA78FA598A99CA78BA78BA59CA50197E7
:1020D000F1F79CA78BA780912A02846080932A0243
:1020E00080912A020E94DA0880E090E0A0E8BFE335
:1020F0008FA398A7A9A7BAA76FA178A589A59AA524
:1021000020E030E04AE755E40E942902DC01CB01DF
:102110008BA39CA3ADA3BEA36BA17CA18DA19EA10B
:1021200020E030E040E85FE30E942F0488232CF495
:1021300081E090E09AA389A33FC06BA17CA18DA10F
:102140009EA120E03FEF4FE757E40E94CF0318160F
:102150004CF56FA178A589A59AA520E030E040E272
:1021600051E40E942902DC01CB01BC01CD010E9497
:102170005300DC01CB019AA389A30FC080E991E051
:1021800098A38F8F8F8D98A10197F1F798A38F8FC8
:1021900089A19AA101979AA389A389A19AA10097DD
:1021A00069F714C06BA17CA18DA19EA10E94530070
:1021B000DC01CB019AA389A389A19AA19E8F8D8F5F
:1021C0008D8D9E8D0197F1F79E8F8D8F80912A02C4
:1021D000282F2F70FE01ED59FF4F8081882F90E04E
:1021E00082959295907F9827807F9827822B809365
:1021F0002A0280912A020E94DA0880E090E0A0E89A
:10220000BFE3898F9A8FAB8FBC8F698D7A8D8B8D51
:102210009C8D20E030E04AE755E40E942902DC0171
:10222000CB018D8B9E8BAF8BB88F6D897E898F890B
:10223000988D20E030E040E85FE30E942F0488237F
:102240002CF481E090E09C8B8B8B3FC06D897E8964
:102250008F89988D20E03FEF4FE757E40E94CF032E
:1022600018164CF5698D7A8D8B8D9C8D20E030E0B1
:1022700040E251E40E942902DC01CB01BC01CD0106
:102280000E945300DC01CB019C8B8B8B0FC080E93B
:1022900091E09A8B898B89899A890197F1F79A8BBA
:1022A000898B8B899C8901979C8B8B8B8B899C89D3
:1022B000009769F714C06D897E898F89988D0E9477
:1022C0005300DC01CB019C8B8B8B8B899C89988B79
:1022D0008F878F8598890197F1F7988B8F878091E9
:1022E0002A028B7F80932A0280912A020E94DA08B8
:1022F00080E090E0A0E8BFE38B879C87AD87BE8736
:102300006B857C858D859E8520E030E04AE755E42D
:102310000E942902DC01CB018F839887A987BA87A5
:102320006F81788589859A8520E030E040E85FE319
:102330000E942F0488232CF481E090E09E838D83FB
:102340003FC06F81788589859A8520E03FEF4FE710
:1023500057E40E94CF0318164CF56B857C858D855C
:102360009E8520E030E040E251E40E942902DC0139
:10237000CB01BC01CD010E945300DC01CB019E8347
:102380008D830FC080E991E09C838B838B819C813E
:102390000197F1F79C838B838D819E8101979E83AA
:1023A0008D838D819E81009769F714C06F81788538
:1023B00089859A850E945300DC01CB019E838D8321
:1023C0008D819E819A83898389819A810197F1F712
:1023D0009A838983CD59DF4F0FB6F894DEBF0FBEC5
:1023E000CDBFCF91DF911F910F910895DF93CF93D0
:1023F00000D00F92CDB7DEB79B838A8319820EC0BF
:102400008981282F30E08A819B81FC01E20FF31F34
:1024100080810E94C90D89818F5F89838981282FDE
:1024200030E08A819B81FC01E20FF31F80818823C9
:1024300039F70F900F900F90CF91DF910895DF93B0
:10244000CF9300D000D00F92CDB7DEB78A836B83D5
:102450008A81282F30E03D832C838C819D818130BF
:102460009105C1F02C813D81223031052CF48C8105
:102470009D81009761F019C02C813D81223031058A
:1024800069F08C819D818330910561F00EC08B8154
:1024900089830BC08B81805C898307C08B81805FBF
:1024A000898303C08B81805B8983898180680E94D6
:1024B0009C090F900F900F900F900F90CF91DF918C
:1024C0000895DF93CF9300D000D0CDB7DEB78983D6
:1024D0006A835C834B8389816A810E941F128B818E
:1024E0009C810E94F6110F900F900F900F90CF914A
:1024F000DF910895DF93CF93CDB7DEB762970FB624
:10250000F894DEBF0FBECDBF9A8B898B89899A89DB
:102510009E012F5F3F4FB9014AE050E00E94AF1B80
:10252000CE0101960E94F61162960FB6F894DEBFB6
:102530000FBECDBFCF91DF910895DF93CF93CDB77D
:10254000DEB781E00E949C09CF91DF910895DF936F
:10255000CF9300D00F92CDB7DEB71B821A821982BB
:1025600082E00E945B079A83898389819A81CC01EA
:10257000A0E0B0E026E930E040E050E0BC01CD0151
:102580000E94371BDC01CB01BC01CD010E94B304CA
:10259000DC01CB01BC01CD012DEC3CEC4CE85FE350
:1025A0000E942902DC01CB01BC01CD0120E030ED0D
:1025B0004FEB54E40E942303DC01CB01BC01CD01AD
:1025C0000E945300DC01CB018B838B810F900F9015
:1025D0000F90CF91DF9108950F931F93DF93CF93C7
:1025E000CDB7DEB7C059D0400FB6F894DEBF0FBEEE
:1025F000CDBFFE01E357FF4F108280E292E00E94C0
:10260000701A87E292E00E9421070E9492070E94BE
:10261000F3190E940409AFE5B0E0EFE5F0E0808136
:1026200080688C93A7E2B0E0E7E2F0E080818470FC
:102630008C930E949D1280E091E00E94F611FE01B1
:10264000E757FF4F80E090E0A8ECB2E480839183ED
:10265000A283B3838E010B571F4FFE01E757FF4F35
:10266000608171818281938120E030E04AE755E406
:102670000E942902DC01CB01F80180839183A283AF
:10268000B383FE01EB57FF4F60817181828193819B
:1026900020E030E040E85FE30E942F04882344F408
:1026A000FE01ED57FF4F81E090E09183808364C08D
:1026B000FE01EB57FF4F608171818281938120E0A1
:1026C0003FEF4FE757E40E94CF0318160CF043C0CA
:1026D000FE01E757FF4F608171818281938120E085
:1026E00030E040E251E40E942902DC01CB018E017E
:1026F0000D571F4FBC01CD010E945300DC01CB01DF
:10270000F801918380831FC0FE01EF57FF4F80E9DE
:1027100091E091838083FE01EF57FF4F808191818B
:102720000197F1F7FE01EF57FF4F91838083DE01A0
:10273000AD57BF4FFE01ED57FF4F8081918101974B
:1027400011969C938E93FE01ED57FF4F80819181EE
:102750000097D1F627C08E010D571F4FFE01EB5792
:10276000FF4F60817181828193810E945300DC015F
:10277000CB01F80191838083DE01A158BF4FFE0198
:10278000ED57FF4F808191818D939C93FE01E1581D
:10279000FF4F808191810197F1F7FE01E158FF4FD2
:1027A0009183808380E068E00E941F1288E091E0BE
:1027B0000E94F61181E060E00E941F1280E191E02A
:1027C0000E94F611FE01E558FF4F80E090E0A8EC72
:1027D000B2E480839183A283B3838E0109581F4F93
:1027E000FE01E558FF4F608171818281938120E075
:1027F00030E04AE755E40E942902DC01CB01F801F0
:1028000080839183A283B383FE01E958FF4F6081E7
:1028100071818281938120E030E040E85FE30E9493
:102820002F04882344F4FE01EB58FF4F81E090E031
:102830009183808364C0FE01E958FF4F60817181FC
:102840008281938120E03FEF4FE757E40E94CF035E
:1028500018160CF043C0FE01E558FF4F60817181EE
:102860008281938120E030E040E251E40E9429021D
:10287000DC01CB018E010B581F4FBC01CD010E9422
:102880005300DC01CB01F801918380831FC0FE015E
:10289000ED58FF4F80E991E091838083FE01ED5870
:1028A000FF4F808191810197F1F7FE01ED58FF4FB5
:1028B00091838083DE01AB58BF4FFE01EB58FF4F81
:1028C00080819181019711969C938E93FE01EB5824
:1028D000FF4F808191810097D1F627C08E010B5860
:1028E0001F4FFE01E958FF4F608171818281938102
:1028F0000E945300DC01CB01F80191838083DE014B
:10290000AF58BF4FFE01EB58FF4F808191818D93EF
:102910009C93FE01EF58FF4F808191810197F1F761
:10292000FE01EF58FF4F91838083A5E2B0E0E5E21E
:10293000F0E080818F7D8C93A5E2B0E0E5E2F0E0ED
:1029400080818F7E8C930E94A712FE01E357FF4F78
:10295000808380E063E00E941F12FE01E357FF4F77
:102960008081843648F0FE01E357FF4F8081882F35
:1029700090E00E947A120BC080E20E94C90DFE0115
:10298000E357FF4F8081882F90E00E947A12FE016A
:10299000E359FF4F80E090E0A8ECB2E4808391839C
:1029A000A283B3838E0107591F4FFE01E359FF4FE6
:1029B000608171818281938120E030E04AE755E4B3
:1029C0000E942902DC01CB01F80180839183A2835C
:1029D000B383FE01E759FF4F60817181828193814A
:1029E00020E030E040E85FE30E942F04882344F4B5
:1029F000FE01E959FF4F81E090E09183808364C03C
:102A0000FE01E759FF4F608171818281938120E04F
:102A10003FEF4FE757E40E94CF0318160CF043C076
:102A2000FE01E359FF4F608171818281938120E033
:102A300030E040E251E40E942902DC01CB018E012A
:102A400009591F4FBC01CD010E945300DC01CB018D
:102A5000F801918380831FC0FE01EB59FF4F80E98D
:102A600091E091838083FE01EB59FF4F808191813A
:102A70000197F1F7FE01EB59FF4F91838083DE014F
:102A8000A959BF4FFE01E959FF4F808191810197FC
:102A900011969C938E93FE01E959FF4F808191819D
:102AA0000097D1F627C08E0109591F4FFE01E75943
:102AB000FF4F60817181828193810E945300DC010C
:102AC000CB01F80191838083DE01AD59BF4FFE0138
:102AD000E959FF4F808191818D939C93FE01ED59BF
:102AE000FF4F808191810197F1F7FE01ED59FF4F72
:102AF00091838083A5E2B0E0E5E2F0E0808180622E
:102B00008C93A5E2B0E0E5E2F0E080818F7E8C93CB
:102B10000E94A712FE01E357FF4F808380E06BE025
:102B20000E941F12FE01E357FF4F8081843648F058
:102B3000FE01E357FF4F8081882F90E00E947A12B8
:102B40000BC080E20E94C90DFE01E357FF4F808158
:102B5000882F90E00E947A12FE01E15AFF4F80E038
:102B600090E0A8ECB2E480839183A283B3838E01CA
:102B7000055A1F4FFE01E15AFF4F6081718182812A
:102B8000938120E030E04AE755E40E942902DC010D
:102B9000CB01F80180839183A283B383FE01E55AC0
:102BA000FF4F608171818281938120E030E040E8B5
:102BB0005FE30E942F04882344F4FE01E75AFF4F8D
:102BC00081E090E09183808364C0FE01E55AFF4F6D
:102BD000608171818281938120E03FEF4FE757E46C
:102BE0000E94CF0318160CF043C0FE01E15AFF4FBC
:102BF000608171818281938120E030E040E251E484
:102C00000E942902DC01CB018E01075A1F4FBC0133
:102C1000CD010E945300DC01CB01F8019183808338
:102C20001FC0FE01E95AFF4F80E991E09183808344
:102C3000FE01E95AFF4F808191810197F1F7FE0172
:102C4000E95AFF4F91838083DE01A75ABF4FFE01EF
:102C5000E75AFF4F80819181019711969C938E9343
:102C6000FE01E75AFF4F808191810097D1F627C07E
:102C70008E01075A1F4FFE01E55AFF4F6081718197
:102C8000828193810E945300DC01CB01F801918382
:102C90008083DE01AB5ABF4FFE01E75AFF4F8081B0
:102CA00091818D939C93FE01EB5AFF4F808191811E
:102CB0000197F1F7FE01EB5AFF4F91838083A5E264
:102CC000B0E0E5E2F0E0808180618C93A5E2B0E0C5
:102CD000E5E2F0E080818F7D8C930E94A712FE01D7
:102CE000E357FF4F808381E063E00E941F12FE01E3
:102CF000E357FF4F8081843648F0FE01E357FF4FD2
:102D00008081882F90E00E947A120BC080E20E949E
:102D1000C90DFE01E357FF4F8081882F90E00E948C
:102D20007A12FE01EF5AFF4F80E090E0A8ECB2E487
:102D300080839183A283B3838E01035B1F4FFE01C7
:102D4000EF5AFF4F608171818281938120E030E0F2
:102D50004AE755E40E942902DC01CB01F801808397
:102D60009183A283B383FE01E35BFF4F6081718196
:102D70008281938120E030E040E85FE30E942F04ED
:102D8000882344F4FE01E55BFF4F81E090E09183EE
:102D9000808364C0FE01E35BFF4F608171818281AB
:102DA000938120E03FEF4FE757E40E94CF031816CE
:102DB0000CF043C0FE01EF5AFF4F608171818281A8
:102DC000938120E030E040E251E40E942902DC01DE
:102DD000CB018E01055B1F4FBC01CD010E9453004A
:102DE000DC01CB01F801918380831FC0FE01E75B0A
:102DF000FF4F80E991E091838083FE01E75BFF4F05
:102E0000808191810197F1F7FE01E75BFF4F91838C
:102E10008083DE01A55BBF4FFE01E55BFF4F808134
:102E20009181019711969C938E93FE01E55BFF4F74
:102E3000808191810097D1F628C08E01055B1F4FDC
:102E4000FE01E35BFF4F60817181828193810E946B
:102E50005300DC01CB01F80191838083DE01A95B83
:102E6000BF4FFE01E55BFF4F8081918111969C93DE
:102E70008E93FE01E95BFF4F808191810197F1F70D
:102E8000FE01E95BFF4F91838083E0ECF0E08081FD
:102E900088230CF04ACD0E94281BFE01E257FF4F09
:102EA000808380E00E94A707FE01E257FF4F8081E8
:102EB000282F30E0C157DF4F39832883CF58D040C7
:102EC000C157DF4F88819981CF58D0408634910512
:102ED00049F1C157DF4FE881F981CF58D040E7343D
:102EE000F1055CF4C157DF4F28813981CF58D040BC
:102EF0002234310509F49FC000C2C157DF4F8881D9
:102F00009981CF58D0408C34910509F480C1C157C4
:102F1000DF4FE881F981CF58D040E235F10509F45F
:102F200000C1EBC181E00E94A707FE01ED5BFF4FEE
:102F300080E090E0A0E2B1E480839183A283B38338
:102F40008E01015C1F4FFE01ED5BFF4F60817181BF
:102F50008281938120E030E04AE755E40E94290213
:102F6000DC01CB01F80180839183A283B383FE014E
:102F7000FF96608171818281938120E030E040E89A
:102F80005FE30E942F0488232CF481E090E09EAF41
:102F90008DAF46C0FE01FF96608171818281938171
:102FA00020E03FEF4FE757E40E94CF03181664F587
:102FB000FE01ED5BFF4F608171818281938120E092
:102FC00030E040E251E40E942902DC01CB01BC0167
:102FD000CD010E945300DC01CB019EAF8DAF0FC02D
:102FE00080E991E09CAF8BAF8BAD9CAD0197F1F781
:102FF0009CAF8BAF8DAD9EAD01979EAF8DAF8DAD6C
:103000009EAD009769F791CCFE01FF9660817181BA
:10301000828193810E945300DC01CB019EAF8DAF72
:103020008DAD9EAD9AAF89AF89AD9AAD0197F1F79D
:103030009AAF89AF7ACC82E00E94A70780E090E047
:10304000A0E2B1E48DAB9EABAFABB8AF6DA97EA9EA
:103050008FA998AD20E030E04AE755E40E942902AC
:10306000DC01CB0189AB9AABABABBCAB69A97AA94C
:103070008BA99CA920E030E040E85FE30E942F0488
:1030800088232CF481E090E098AB8FA73FC069A91A
:103090007AA98BA99CA920E03FEF4FE757E40E9453
:1030A000CF0318164CF56DA97EA98FA998AD20E025
:1030B00030E040E251E40E942902DC01CB01BC0176
:1030C000CD010E945300DC01CB0198AB8FA70FC04C
:1030D00080E991E09EA78DA78DA59EA50197F1F7A8
:1030E0009EA78DA78FA598A9019798AB8FA78FA5AD
:1030F00098A9009769F719CC69A97AA98BA99CA905
:103100000E945300DC01CB0198AB8FA78FA598A933
:103110009CA78BA78BA59CA50197F1F79CA78BA7D4
:1031200004CC84E00E94A70780E090E0A0E2B1E434
:103130008FA398A7A9A7BAA76FA178A589A59AA5D3
:1031400020E030E04AE755E40E942902DC01CB018F
:103150008BA39CA3ADA3BEA36BA17CA18DA19EA1BB
:1031600020E030E040E85FE30E942F0488232CF445
:1031700081E090E09AA389A33FC06BA17CA18DA1BF
:103180009EA120E03FEF4FE757E40E94CF031816BF
:103190004CF56FA178A589A59AA520E030E040E222
:1031A00051E40E942902DC01CB01BC01CD010E9447
:1031B0005300DC01CB019AA389A30FC080E991E001
:1031C00098A38F8F8F8D98A10197F1F798A38F8F78
:1031D00089A19AA101979AA389A389A19AA100978D
:1031E00069F7A3CB6BA17CA18DA19EA10E94530086
:1031F000DC01CB019AA389A389A19AA19E8F8D8F0F
:103200008D8D9E8D0197F1F79E8F8D8F8ECB83E0F4
:103210000E94A70780E090E0A0E2B1E4898F9A8F36
:10322000AB8FBC8F698D7A8D8B8D9C8D20E030E0CB
:103230004AE755E40E942902DC01CB018D8B9E8B6D
:10324000AF8BB88F6D897E898F89988D20E030E0B3
:1032500040E85FE30E942F0488232CF481E090E093
:103260009C8B8B8B3FC06D897E898F89988D20E0E8
:103270003FEF4FE757E40E94CF0318164CF5698DD6
:103280007A8D8B8D9C8D20E030E040E251E40E94ED
:103290002902DC01CB01BC01CD010E945300DC01FD
:1032A000CB019C8B8B8B0FC080E991E09A8B898B33
:1032B00089899A890197F1F79A8B898B8B899C89E7
:1032C00001979C8B8B8B8B899C89009769F72DCB01
:1032D0006D897E898F89988D0E945300DC01CB0116
:1032E0009C8B8B8B8B899C89988B8F878F859889FA
:1032F0000197F1F7988B8F8718CB80E00E94A70782
:1033000080E090E0A0E2B1E48B879C87AD87BE8728
:103310006B857C858D859E8520E030E04AE755E40D
:103320000E942902DC01CB018F839887A987BA8785
:103330006F81788589859A8520E030E040E85FE3F9
:103340000E942F0488232CF481E090E09E838D83DB
:103350003FC06F81788589859A8520E03FEF4FE7F0
:1033600057E40E94CF0318164CF56B857C858D853C
:103370009E8520E030E040E251E40E942902DC0119
:10338000CB01BC01CD010E945300DC01CB019E8327
:103390008D830FC080E991E09C838B838B819C811E
:1033A0000197F1F79C838B838D819E8101979E838A
:1033B0008D838D819E81009769F7B7CA6F8178856B
:1033C00089859A850E945300DC01CB019E838D8301
:1033D0008D819E819A83898389819A810197F1F7F2
:1033E0009A838983A2CADF93CF93CDB7DEB7E8EB88
:1033F000F0E08CE08083E9EBF0E01082EAEBF0E0B3
:1034000082E08083ECEBF0E084E08083CF91DF9179
:103410000895DF93CF93CDB7DEB7ECEBF0E084EA0D
:103420008083ECEBF0E080818823DCF7CF91DF91A3
:103430000895DF93CF93CDB7DEB7ECEBF0E084E9EE
:103440008083CF91DF910895DF93CF930F92CDB713
:10345000DEB78983EBEBF0E089818083ECEBF0E071
:1034600084E88083ECEBF0E080818823DCF70F9028
:10347000CF91DF910895DF93CF93CDB7DEB7ECEB1B
:10348000F0E084EC8083ECEBF0E080818823DCF7D3
:10349000EBEBF0E08081CF91DF910895DF93CF9344
:1034A000CDB7DEB7ECEBF0E084E88083ECEBF0E046
:1034B00080818823DCF7EBEBF0E08081CF91DF9116
:1034C0000895DF93CF930F92CDB7DEB7E9EBF0E02D
:1034D0008081887F898389810F90CF91DF910895C2
:1034E000DF93CF9300D000D0CDB7DEB79C838B8322
:1034F000AAE2B0E0EAE2F0E0808182608C93AAE286
:10350000B0E0EAE2F0E080818E7F8C931A8219822B
:10351000E1ECF0E088E18083A2ECB0E0E2ECF0E0E6
:103520008081282F2F7CEB81FC818181882F90E086
:1035300082959295907F9827807F9827822B8C93F5
:10354000A2ECB0E0E2ECF0E08081282F277FEB8155
:10355000FC818281882F90E0880F991F880F991F26
:10356000880F991F822B8C93A2ECB0E0E2ECF0E084
:103570008081282F297FEB81FC818081882F90E03A
:1035800083709070880F991F822B8C93A1ECB0E010
:10359000E1ECF0E08081282F2B7FEB81FC818081A2
:1035A000882F90E084709070880F991F880F991F62
:1035B000822B8C93EB81FC8183819481A581B681E0
:1035C000880F991FAA1FBB1F880F991FAA1FBB1F17
:1035D000880F991FAA1FBB1F880F991FAA1FBB1F07
:1035E0009C01AD0180E094E2A4EFB0E0BC01CD010C
:1035F0000E94561BDA01C90101979A838983E5EC81
:10360000F0E089819A81892F99278083E4ECF0E0AA
:10361000898180830F900F900F900F90CF91DF9151
:103620000895DF93CF930F92CDB7DEB78983E0EC97
:10363000F0E08081882F90E0807290700097B9F35D
:10364000E6ECF0E0898180830F90CF91DF910895BF
:10365000DF93CF93CDB7DEB7E0ECF0E08081882335
:10366000DCF7E6ECF0E08081CF91DF910895629F76
:10367000D001739FF001829FE00DF11D649FE00D6A
:10368000F11D929FF00D839FF00D749FF00D659FCB
:10369000F00D9927729FB00DE11DF91F639FB00DCA
:1036A000E11DF91FBD01CF0111240895A1E21A2ED9
:1036B000AA1BBB1BFD010DC0AA1FBB1FEE1FFF1FD6
:1036C000A217B307E407F50720F0A21BB30BE40B26
:1036D000F50B661F771F881F991F1A9469F760956D
:1036E0007095809590959B01AC01BD01CF01089527
:1036F0002F923F924F925F926F927F928F929F9202
:10370000AF92BF92CF92DF92EF92FF920F931F93EF
:10371000CF93DF93CDB7DEB7CA1BDB0B0FB6F894A0
:10372000DEBF0FBECDBF09942A88398848885F84E0
:103730006E847D848C849B84AA84B984C884DF8051
:10374000EE80FD800C811B81AA81B981CE0FD11D35
:103750000FB6F894DEBF0FBECDBFED010895FB019B
:103760009F01E8944230C4F04532B4F44A3029F461
:1037700097FB1EF4909581959F4F642F77270E94A9
:10378000E01B805D8A330CF0895D8193CB0100974B
:10379000A1F716F45DE251931082C9010C94D01B7D
:1037A000DC01FC01672F71917723E1F7329704C0A8
:1037B0007C916D9370836291AE17BF07C8F3089533
:1037C000AA1BBB1B51E107C0AA1FBB1FA617B70747
:1037D00010F0A61BB70B881F991F5A95A9F7809563
:0C37E0009095BC01CD010895F894FFCF36
:1037EC0054313D202020430054323D202020430002
:1037FC0054333D2020204300000000000000000056
:10380C00000102020303030304040404040404047B
:10381C00050505050505050505050505050505054C
:10382C00060606060606060606060606060606062C
:10383C00060606060606060606060606060606061C
:10384C0007070707070707070707070707070707FC
:10385C0007070707070707070707070707070707EC
:10386C0007070707070707070707070707070707DC
:10387C0007070707070707070707070707070707CC
:10388C0008080808080808080808080808080808AC
:10389C00080808080808080808080808080808089C
:1038AC00080808080808080808080808080808088C
:1038BC00080808080808080808080808080808087C
:1038CC00080808080808080808080808080808086C
:1038DC00080808080808080808080808080808085C
:1038EC00080808080808080808080808080808084C
:1038FC00080808080808080808080808080808083C
:0A390C000300008025000003040002
:00000001FF
